{
  "_format": "hh-sol-artifact-1",
  "contractName": "BohemAuthNFT",
  "sourceName": "contracts/BohemAuthNFT.sol",
  "abi": [
    {
      "inputs": [
        {
          "internalType": "address",
          "name": "_bohemAuth",
          "type": "address"
        }
      ],
      "stateMutability": "nonpayable",
      "type": "constructor"
    },
    {
      "inputs": [
        {
          "internalType": "address",
          "name": "sender",
          "type": "address"
        },
        {
          "internalType": "uint256",
          "name": "tokenId",
          "type": "uint256"
        },
        {
          "internalType": "address",
          "name": "owner",
          "type": "address"
        }
      ],
      "name": "ERC721IncorrectOwner",
      "type": "error"
    },
    {
      "inputs": [
        {
          "internalType": "address",
          "name": "operator",
          "type": "address"
        },
        {
          "internalType": "uint256",
          "name": "tokenId",
          "type": "uint256"
        }
      ],
      "name": "ERC721InsufficientApproval",
      "type": "error"
    },
    {
      "inputs": [
        {
          "internalType": "address",
          "name": "approver",
          "type": "address"
        }
      ],
      "name": "ERC721InvalidApprover",
      "type": "error"
    },
    {
      "inputs": [
        {
          "internalType": "address",
          "name": "operator",
          "type": "address"
        }
      ],
      "name": "ERC721InvalidOperator",
      "type": "error"
    },
    {
      "inputs": [
        {
          "internalType": "address",
          "name": "owner",
          "type": "address"
        }
      ],
      "name": "ERC721InvalidOwner",
      "type": "error"
    },
    {
      "inputs": [
        {
          "internalType": "address",
          "name": "receiver",
          "type": "address"
        }
      ],
      "name": "ERC721InvalidReceiver",
      "type": "error"
    },
    {
      "inputs": [
        {
          "internalType": "address",
          "name": "sender",
          "type": "address"
        }
      ],
      "name": "ERC721InvalidSender",
      "type": "error"
    },
    {
      "inputs": [
        {
          "internalType": "uint256",
          "name": "tokenId",
          "type": "uint256"
        }
      ],
      "name": "ERC721NonexistentToken",
      "type": "error"
    },
    {
      "anonymous": false,
      "inputs": [
        {
          "indexed": true,
          "internalType": "address",
          "name": "owner",
          "type": "address"
        },
        {
          "indexed": true,
          "internalType": "address",
          "name": "approved",
          "type": "address"
        },
        {
          "indexed": true,
          "internalType": "uint256",
          "name": "tokenId",
          "type": "uint256"
        }
      ],
      "name": "Approval",
      "type": "event"
    },
    {
      "anonymous": false,
      "inputs": [
        {
          "indexed": true,
          "internalType": "address",
          "name": "owner",
          "type": "address"
        },
        {
          "indexed": true,
          "internalType": "address",
          "name": "operator",
          "type": "address"
        },
        {
          "indexed": false,
          "internalType": "bool",
          "name": "approved",
          "type": "bool"
        }
      ],
      "name": "ApprovalForAll",
      "type": "event"
    },
    {
      "anonymous": false,
      "inputs": [
        {
          "indexed": false,
          "internalType": "uint256",
          "name": "_fromTokenId",
          "type": "uint256"
        },
        {
          "indexed": false,
          "internalType": "uint256",
          "name": "_toTokenId",
          "type": "uint256"
        }
      ],
      "name": "BatchMetadataUpdate",
      "type": "event"
    },
    {
      "anonymous": false,
      "inputs": [
        {
          "indexed": false,
          "internalType": "uint256",
          "name": "_tokenId",
          "type": "uint256"
        }
      ],
      "name": "MetadataUpdate",
      "type": "event"
    },
    {
      "anonymous": false,
      "inputs": [
        {
          "indexed": true,
          "internalType": "address",
          "name": "from",
          "type": "address"
        },
        {
          "indexed": true,
          "internalType": "address",
          "name": "to",
          "type": "address"
        },
        {
          "indexed": true,
          "internalType": "uint256",
          "name": "tokenId",
          "type": "uint256"
        }
      ],
      "name": "Transfer",
      "type": "event"
    },
    {
      "inputs": [],
      "name": "_nextTokenId",
      "outputs": [
        {
          "internalType": "uint256",
          "name": "",
          "type": "uint256"
        }
      ],
      "stateMutability": "view",
      "type": "function"
    },
    {
      "inputs": [
        {
          "internalType": "address",
          "name": "to",
          "type": "address"
        },
        {
          "internalType": "uint256",
          "name": "tokenId",
          "type": "uint256"
        }
      ],
      "name": "approve",
      "outputs": [],
      "stateMutability": "nonpayable",
      "type": "function"
    },
    {
      "inputs": [
        {
          "internalType": "address",
          "name": "owner",
          "type": "address"
        }
      ],
      "name": "balanceOf",
      "outputs": [
        {
          "internalType": "uint256",
          "name": "",
          "type": "uint256"
        }
      ],
      "stateMutability": "view",
      "type": "function"
    },
    {
      "inputs": [],
      "name": "bohemAuth",
      "outputs": [
        {
          "internalType": "contract IBohemAuth",
          "name": "",
          "type": "address"
        }
      ],
      "stateMutability": "view",
      "type": "function"
    },
    {
      "inputs": [
        {
          "internalType": "uint256",
          "name": "tokenId",
          "type": "uint256"
        }
      ],
      "name": "getApproved",
      "outputs": [
        {
          "internalType": "address",
          "name": "",
          "type": "address"
        }
      ],
      "stateMutability": "view",
      "type": "function"
    },
    {
      "inputs": [
        {
          "internalType": "address",
          "name": "owner",
          "type": "address"
        },
        {
          "internalType": "address",
          "name": "operator",
          "type": "address"
        }
      ],
      "name": "isApprovedForAll",
      "outputs": [
        {
          "internalType": "bool",
          "name": "",
          "type": "bool"
        }
      ],
      "stateMutability": "view",
      "type": "function"
    },
    {
      "inputs": [],
      "name": "name",
      "outputs": [
        {
          "internalType": "string",
          "name": "",
          "type": "string"
        }
      ],
      "stateMutability": "view",
      "type": "function"
    },
    {
      "inputs": [
        {
          "internalType": "uint256",
          "name": "tokenId",
          "type": "uint256"
        }
      ],
      "name": "ownerOf",
      "outputs": [
        {
          "internalType": "address",
          "name": "",
          "type": "address"
        }
      ],
      "stateMutability": "view",
      "type": "function"
    },
    {
      "inputs": [
        {
          "components": [
            {
              "internalType": "bytes32[]",
              "name": "merkleProof",
              "type": "bytes32[]"
            },
            {
              "components": [
                {
                  "internalType": "bytes32",
                  "name": "attestationType",
                  "type": "bytes32"
                },
                {
                  "internalType": "bytes32",
                  "name": "sourceId",
                  "type": "bytes32"
                },
                {
                  "internalType": "uint64",
                  "name": "votingRound",
                  "type": "uint64"
                },
                {
                  "internalType": "uint64",
                  "name": "lowestUsedTimestamp",
                  "type": "uint64"
                },
                {
                  "components": [
                    {
                      "internalType": "string",
                      "name": "url",
                      "type": "string"
                    },
                    {
                      "internalType": "string",
                      "name": "postprocessJq",
                      "type": "string"
                    },
                    {
                      "internalType": "string",
                      "name": "abi_signature",
                      "type": "string"
                    }
                  ],
                  "internalType": "struct IJsonApi.RequestBody",
                  "name": "requestBody",
                  "type": "tuple"
                },
                {
                  "components": [
                    {
                      "internalType": "bytes",
                      "name": "abi_encoded_data",
                      "type": "bytes"
                    }
                  ],
                  "internalType": "struct IJsonApi.ResponseBody",
                  "name": "responseBody",
                  "type": "tuple"
                }
              ],
              "internalType": "struct IJsonApi.Response",
              "name": "data",
              "type": "tuple"
            }
          ],
          "internalType": "struct IJsonApi.Proof",
          "name": "_proof",
          "type": "tuple"
        },
        {
          "internalType": "bytes",
          "name": "proof",
          "type": "bytes"
        },
        {
          "internalType": "string",
          "name": "claimId",
          "type": "string"
        },
        {
          "internalType": "address",
          "name": "recipient",
          "type": "address"
        }
      ],
      "name": "redeemProduct",
      "outputs": [],
      "stateMutability": "nonpayable",
      "type": "function"
    },
    {
      "inputs": [
        {
          "internalType": "address",
          "name": "from",
          "type": "address"
        },
        {
          "internalType": "address",
          "name": "to",
          "type": "address"
        },
        {
          "internalType": "uint256",
          "name": "tokenId",
          "type": "uint256"
        }
      ],
      "name": "safeTransferFrom",
      "outputs": [],
      "stateMutability": "nonpayable",
      "type": "function"
    },
    {
      "inputs": [
        {
          "internalType": "address",
          "name": "from",
          "type": "address"
        },
        {
          "internalType": "address",
          "name": "to",
          "type": "address"
        },
        {
          "internalType": "uint256",
          "name": "tokenId",
          "type": "uint256"
        },
        {
          "internalType": "bytes",
          "name": "data",
          "type": "bytes"
        }
      ],
      "name": "safeTransferFrom",
      "outputs": [],
      "stateMutability": "nonpayable",
      "type": "function"
    },
    {
      "inputs": [
        {
          "internalType": "address",
          "name": "operator",
          "type": "address"
        },
        {
          "internalType": "bool",
          "name": "approved",
          "type": "bool"
        }
      ],
      "name": "setApprovalForAll",
      "outputs": [],
      "stateMutability": "nonpayable",
      "type": "function"
    },
    {
      "inputs": [
        {
          "internalType": "bytes4",
          "name": "interfaceId",
          "type": "bytes4"
        }
      ],
      "name": "supportsInterface",
      "outputs": [
        {
          "internalType": "bool",
          "name": "",
          "type": "bool"
        }
      ],
      "stateMutability": "view",
      "type": "function"
    },
    {
      "inputs": [],
      "name": "symbol",
      "outputs": [
        {
          "internalType": "string",
          "name": "",
          "type": "string"
        }
      ],
      "stateMutability": "view",
      "type": "function"
    },
    {
      "inputs": [
        {
          "internalType": "uint256",
          "name": "tokenId",
          "type": "uint256"
        }
      ],
      "name": "tokenURI",
      "outputs": [
        {
          "internalType": "string",
          "name": "",
          "type": "string"
        }
      ],
      "stateMutability": "view",
      "type": "function"
    },
    {
      "inputs": [
        {
          "internalType": "address",
          "name": "from",
          "type": "address"
        },
        {
          "internalType": "address",
          "name": "to",
          "type": "address"
        },
        {
          "internalType": "uint256",
          "name": "tokenId",
          "type": "uint256"
        }
      ],
      "name": "transferFrom",
      "outputs": [],
      "stateMutability": "nonpayable",
      "type": "function"
    },
    {
      "inputs": [
        {
          "internalType": "string",
          "name": "",
          "type": "string"
        }
      ],
      "name": "usedClaimIds",
      "outputs": [
        {
          "internalType": "bool",
          "name": "",
          "type": "bool"
        }
      ],
      "stateMutability": "view",
      "type": "function"
    }
  ],
  "bytecode": "0x60806040523462000030576200001e62000018620000d3565b620001e1565b604051611fb1620004368239611fb190f35b600080fd5b634e487b7160e01b600052604160045260246000fd5b90601f01601f191681019081106001600160401b038211176200006d57604052565b62000035565b906200008a6200008260405190565b92836200004b565b565b6001600160a01b031690565b90565b6001600160a01b038116036200003057565b905051906200008a826200009b565b9060208282031262000030576200009891620000ad565b62000098620023e780380380620000ea8162000073565b928339810190620000bc565b6001600160401b0381116200006d57602090601f01601f19160190565b90620001296200012383620000f6565b62000073565b918252565b6200013a600962000113565b68084ded0cada82eae8d60bb1b602082015290565b620000986200012e565b62000165600562000113565b64426f68656d60d81b602082015290565b6200009862000159565b62000098906200008c906001600160a01b031682565b620000989062000180565b620000989062000196565b906001600160a01b03905b9181191691161790565b90620001d562000098620001dd92620001a1565b8254620001ac565b9055565b6200020f6200008a9162000209620001f86200014f565b6200020262000176565b9062000217565b620001a1565b6008620001c1565b906200008a916200041b565b634e487b7160e01b600052602260045260246000fd5b90600160028304921680156200025c575b60208310146200025657565b62000223565b91607f16916200024a565b9160001960089290920291821b911b620001b7565b6200009862000098620000989290565b9190620002a162000098620001dd936200027c565b90835462000267565b6200008a916000916200028c565b818110620002c4575050565b80620002d46000600193620002aa565b01620002b8565b9190601f8111620002eb57505050565b620002ff6200008a93600052602060002090565b906020601f84018190048301931062000323575b6020601f909101040190620002b8565b909150819062000313565b9062000338815190565b906001600160401b0382116200006d57620003608262000359855462000239565b85620002db565b602090601f83116001146200039f57620001dd92916000918362000393575b5050600019600883021c1916906002021790565b0151905038806200037f565b601f19831691620003b585600052602060002090565b9260005b818110620003f657509160029391856001969410620003dc575b50505002019055565b01516000196008601f8516021c19169055388080620003d3565b91936020600181928787015181550195019201620003b9565b906200008a916200032e565b906200042d6200008a9260006200040f565b60016200040f56fe6080604052600436101561001257600080fd5b60003560e01c806301ffc9a71461012257806306fdde031461011d578063081812fc14610118578063095ea7b3146101135780631ff179271461010e57806323b872dd1461010957806342842e0e146101045780634a60f620146100ff5780636352211e146100fa57806370a08231146100f557806395d89b41146100f0578063a22cb465146100eb578063b88d4fde146100e6578063c87b56dd146100e1578063cfbdc0e6146100dc578063d5dd44f5146100d75763e985e9c50361013a57610800565b6107c2565b6106ec565b610665565b610649565b61051c565b6104c9565b6104ae565b61047f565b610454565b610419565b610400565b6103b8565b6102e0565b61026c565b610212565b610169565b6001600160e01b031981165b0361013a57565b600080fd5b9050359061014c82610127565b565b9060208282031261013a576101629161013f565b90565b9052565b3461013a5761019761018461017f36600461014e565b610849565b6040515b91829182901515815260200190565b0390f35b600091031261013a57565b60005b8381106101b95750506000910152565b81810151838201526020016101a9565b6101ea6101f36020936101fd936101de815190565b80835293849260200190565b958691016101a6565b601f01601f191690565b0190565b6020808252610162929101906101c9565b3461013a5761022236600461019b565b61019761022d61096d565b60405191829182610201565b80610133565b9050359061014c82610239565b9060208282031261013a576101629161023f565b6001600160a01b031690565b3461013a5761019761028761028236600461024c565b610977565b604051918291826001600160a01b03909116815260200190565b6001600160a01b038116610133565b9050359061014c826102a1565b919060408382031261013a576101629060206102d982866102b0565b940161023f565b3461013a576102f96102f33660046102bd565b9061098a565b604051005b9081604091031261013a5790565b909182601f8301121561013a5781359167ffffffffffffffff831161013a57602001926001830284011161013a57565b919060808382031261013a57823567ffffffffffffffff811161013a57816103659185016102fe565b92602081013567ffffffffffffffff811161013a578261038691830161030c565b929093604083013567ffffffffffffffff811161013a57826103af60609461016293870161030c565b949095016102b0565b3461013a576102f96103cb36600461033c565b94939093929192610fb3565b909160608284031261013a576101626103f084846102b0565b9360406102d982602087016102b0565b3461013a576102f96104133660046103d7565b91611130565b3461013a576102f961042c3660046103d7565b916111f2565b610162916008021c81565b906101629154610432565b6101626000600761043d565b3461013a5761046436600461019b565b61019761046f610448565b6040519182918290815260200190565b3461013a5761019761028761049536600461024c565b611206565b9060208282031261013a57610162916102b0565b3461013a5761019761046f6104c436600461049a565b611227565b3461013a576104d936600461019b565b61019761022d61128f565b801515610133565b9050359061014c826104e4565b919060408382031261013a5761016290602061051582866102b0565b94016104ec565b3461013a576102f961052f3660046104f9565b90611299565b634e487b7160e01b600052604160045260246000fd5b90601f01601f1916810190811067ffffffffffffffff82111761056d57604052565b610535565b9061014c61057f60405190565b928361054b565b67ffffffffffffffff811161056d57602090601f01601f19160190565b90826000939282370152565b909291926105c46105bf82610586565b610572565b938185528183011161013a5761014c9160208501906105a3565b9080601f8301121561013a57816020610162933591016105af565b9060808282031261013a5761060e81836102b0565b9261061c82602085016102b0565b9261062a836040830161023f565b92606082013567ffffffffffffffff811161013a5761016292016105de565b3461013a576102f961065c3660046105f9565b929190916112a4565b3461013a5761019761022d61067b36600461024c565b611306565b610162916008021c6001600160a01b031690565b906101629154610680565b61016260006008610694565b610260610162610162926001600160a01b031690565b610162906106ab565b610162906106c1565b610165906106ca565b60208101929161014c91906106d3565b3461013a576106fc36600461019b565b61019761070761069f565b604051918291826106dc565b9060208282031261013a57813567ffffffffffffffff811161013a5761016292016105de565b6101fd6107519260209261074b815190565b94859290565b938491016101a6565b61076a6101fd9160209493610739565b918252565b61078461077b60405190565b9283928361075a565b03902090565b6101629161076f565b610162916008021c5b60ff1690565b906101629154610793565b60006107bd61016292600961078a565b6107a2565b3461013a576101976101846107d8366004610713565b6107ad565b919060408382031261013a576101629060206107f982866102b0565b94016102b0565b3461013a576101976101846108163660046107dd565b90611372565b61082f6108296101629290565b60e01b90565b6001600160e01b03191690565b610162634906490661081c565b61085461082f61083c565b6001600160e01b031982161490811561086b575090565b6101629150611392565b634e487b7160e01b600052602260045260246000fd5b90600160028304921680156108ab575b60208310146108a657565b610875565b91607f169161089b565b805460009392916108d26108c88361088b565b8085529360200190565b916001811690811561092457506001146108eb57505050565b6108fe9192939450600052602060002090565b916000925b8184106109105750500190565b805484840152602090930192600101610903565b92949550505060ff1916825215156020020190565b90610162916108b5565b9061014c61095d9261095460405190565b93848092610939565b038361054b565b61016290610943565b6101626000610964565b61016290610984816113dd565b5061142e565b61014c91339161144a565b61016290610260565b6101629054610995565b9050519061014c826104e4565b9060208282031261013a57610162916109a8565b9035601e19368390030181121561013a57016020813591019167ffffffffffffffff821161013a57602082023603831361013a57565b9037565b8183529091602001917f07ffffffffffffffffffffffffffffffffffffffffffffffffffffffffffffff811161013a57829160206101fd92029384916109ff565b903560be19368390030181121561013a570190565b5061016290602081019061023f565b67ffffffffffffffff8116610133565b9050359061014c82610a68565b50610162906020810190610a78565b9035605e19368390030181121561013a570190565b9035601e19368390030181121561013a57016020813591019167ffffffffffffffff821161013a5736829003831361013a57565b91906101f381610af4816101fd9560209181520190565b80956105a3565b61016291610b47610b3c610b2160608401610b168680610aa9565b868303875290610add565b610b2e6020860186610aa9565b908583036020870152610add565b926040810190610aa9565b916040818503910152610add565b9035601e19368390030181121561013a570190565b610162916020810191610b7d9080610aa9565b828403909252610add565b61016291610c25610c1a60c08301610ba7610ba38680610a59565b8552565b610bbe610bb76020870187610a59565b6020860152565b610bdf610bce6040870187610a85565b67ffffffffffffffff166040860152565b610c00610bef6060870187610a85565b67ffffffffffffffff166060860152565b610c0d6080860186610a94565b8482036080860152610afb565b9260a0810190610b55565b9060a0818403910152610b6a565b61016291610c61610c5660408301610c4b85806109c9565b858303865290610a03565b926020810190610a44565b906020818403910152610b88565b93916101629593610c8f610c9d93606088019088820360008a0152610c33565b918683036020880152610add565b926040818503910152610add565b6040513d6000823e3d90fd5b15610cbe57565b60405162461bcd60e51b815260206004820152600d60248201527f496e76616c69642070726f6f66000000000000000000000000000000000000006044820152606490fd5b0390fd5b90359060be19368290030182121561013a570190565b903590601e19368290030182121561013a570190565b903590601e19368290030182121561013a570180359067ffffffffffffffff821161013a576020019136829003831361013a57565b91909160c08184031261013a57610d7f60c0610572565b92813567ffffffffffffffff811161013a5781610d9d9184016105de565b8452602082013567ffffffffffffffff811161013a5781610dbf9184016105de565b6020850152604082013567ffffffffffffffff811161013a5781610de49184016105de565b6040850152606082013567ffffffffffffffff811161013a5781610e099184016105de565b6060850152608082013567ffffffffffffffff811161013a5781610e2e9184016105de565b608085015260a082013567ffffffffffffffff811161013a57610e5192016105de565b60a0830152565b9060208282031261013a57813567ffffffffffffffff811161013a576101629201610d68565b90916101fd90839080936105a3565b61076a90602094936101fd93610e7e565b909161078490610ead60405190565b93849384610e8d565b909161016292610e9e565b6101629061079c565b6101629054610ec1565b15610edb57565b60405162461bcd60e51b815260206004820152601460248201527f436c61696d496420616c726561647920757365640000000000000000000000006044820152606490fd5b9060ff905b9181191691161790565b90610f3f610162610f4692151590565b8254610f20565b9055565b6101629081565b6101629054610f4a565b634e487b7160e01b600052601160045260246000fd5b6000198114610f805760010190565b610f5b565b9060001990610f25565b6101626101626101629290565b90610fac610162610f4692610f8f565b8254610f85565b90836020918697969594610fcf610fca600861099e565b6106ca565b91610ff7610fdc60405190565b9a8b9586948594634d58aebf60e01b86528a60048701610c6f565b03915afa9081156110df5761107c60a09461105161104961104361103a6001966110306110819961014c9e6000916110b0575b50610cb7565b6020810190610d07565b89810190610d1d565b80610d33565b810190610e58565b9461107561107061106c61106785856009610eb6565b610eca565b1590565b610ed4565b6009610eb6565b610f2f565b6110a861108e6007610f51565b80946110a361109c83610f71565b6007610f9c565b611457565b01519061166a565b6110d2915060203d6020116110d8575b6110ca818361054b565b8101906109b5565b3861102a565b503d6110c0565b610cab565b6102606101626101629290565b610162906110e4565b6001600160a01b03909116815260608101939261014c929091604091611121906020830152565b01906001600160a01b03169052565b9061113b60006110f1565b6001600160a01b0381166001600160a01b038316146111a25750611161908333916116ce565b6001600160a01b0382166001600160a01b0382160361117f57505050565b610d039061118c60405190565b6364283d7b60e01b8152938493600485016110fa565b610d03906111af60405190565b633250574960e11b8152918291600483016001600160a01b03909116815260200190565b9061076a6105bf83610586565b61016260006111d3565b6101626111e0565b909161014c926112006111ea565b926112a4565b610162906113dd565b90611219906106ca565b600052602052604060002090565b61123160006110f1565b6001600160a01b0381166001600160a01b0383161461125e575061125961016291600361120f565b610f51565b610d039061126b60405190565b6322718ad960e21b8152918291600483016001600160a01b03909116815260200190565b6101626001610964565b61014c919033611819565b9061014c9392916112b6838383611130565b33611924565b9061121990610f8f565b6112d4906101629392610739565b90610739565b6112fa929161014c916112ec60405190565b9485926020840192836112c6565b9081038252038361054b565b61130f816113dd565b5061132361131e8260066112bc565b610964565b61132b611a2e565b805161133e61133a6000610f8f565b9190565b1461136c57815161135261133a6000610f8f565b1161136257505061016290611a36565b61016292506112da565b50905090565b6101629161138d61106792611385600090565b50600561120f565b61120f565b6380ac58cd60e01b6001600160e01b03198216149081156113c2575b81156113b8575090565b6101629150611a79565b6001600160e01b03198116635b5e139f60e01b1491506113ae565b6113e681611a8d565b906113f461026060006110f1565b6001600160a01b03831614611407575090565b610d039061141460405190565b637e27328960e01b81529182916004830190815260200190565b6114456101629161143d600090565b5060046112bc565b61099e565b9160019161014c93611aa4565b9061146260006110f1565b916001600160a01b0383166001600160a01b038216146114db576114879183916116ce565b6114a26001600160a01b0383165b916001600160a01b031690565b036114aa5750565b610d03906114b760405190565b6339e3563760e11b8152918291600483016001600160a01b03909116815260200190565b610d03836111af60405190565b9160001960089290920291821b911b610f25565b919061150d610162610f4693610f8f565b9083546114e8565b61014c916000916114fc565b81811061152c575050565b8061153a6000600193611515565b01611521565b9190601f811161154f57505050565b61156161014c93600052602060002090565b906020601f840181900483019310611583575b6020601f909101040190611521565b9091508190611574565b90611596815190565b9067ffffffffffffffff821161056d576115ba826115b4855461088b565b85611540565b602090601f83116001146115f557610f469291600091836115ea575b5050600019600883021c1916906002021790565b0151905038806115d6565b601f1983169161160a85600052602060002090565b9260005b8181106116485750916002939185600196941061162f575b50505002019055565b01516000196008601f8516021c19169055388080611626565b9193602060018192878701518155019501920161160e565b9061014c9161158d565b6116a39061046f7ff8e1a15aba9398e019f0b49df1a4fde98ee17ae345cb5f6b5e2c27f5033e8ce79361169e8360066112bc565b611660565b0390a1565b906001600160a01b0390610f25565b906116c7610162610f46926106ca565b82546116a8565b9061172c6116db82611a8d565b9360006116e7816110f1565b91846001600160a01b0384166001600160a01b03831603611808575b50506001600160a01b0382166001600160a01b038716036117cd575b506001600160a01b031690565b6001600160a01b0383160361179d575b6117508261174b8360026112bc565b6116b7565b61176b61176561175f856106ca565b936106ca565b91610f8f565b917fddf252ad1be2c89b69c2b068fc378daa952ba7f163c4a11628f55a4df523b3ef61179660405190565b600090a490565b6117c86117aa6001610f8f565b6117c26117b885600361120f565b916101fd83610f51565b90610f9c565b61173c565b6117d990828581611aa4565b6118026117e66001610f8f565b6117c26117f488600361120f565b916117fe83610f51565b0390565b3861171f565b6118129188611bfd565b3884611703565b61182661026060006110f1565b6001600160a01b038316146118825761187d61187361175f83610fca8761107c8861138d7f17307eab39ab6107e8899845ad3d59bd9653f200f220920489ca2b5937696c3199600561120f565b9361018860405190565b0390a3565b610d038261188f60405190565b630b61174360e31b8152918291600483016001600160a01b03909116815260200190565b9050519061014c82610127565b9060208282031261013a57610162916118b3565b6001600160a01b039182168152911660208201526040810191909152608060608201819052610162929101906101c9565b3d1561191f576119143d6111d3565b903d6000602084013e565b606090565b9392909193843b61193861133a6000610f8f565b11611945575b5050505050565b6020926000611956610fca886106ca565b9261197d61196360405190565b97889687958694630a85bd0160e11b8652600486016118d4565b03925af1600091816119fd575b506119d8575061199f565b388080808061193e565b6119a7611905565b906119b0825190565b6119bd61133a6000610f8f565b036119cf57610d03906111af60405190565b50805190602001fd5b6119f2630a85bd0160e11b5b916001600160e01b03191690565b036111a25750611995565b611a2091925060203d602011611a27575b611a18818361054b565b8101906118c0565b903861198a565b503d611a0e565b6101626111ea565b611a3f816113dd565b50611a48611a2e565b8051611a5761133a6000610f8f565b1115611a6f57611a6961016292611ca5565b906112da565b50506101626111ea565b611a896301ffc9a760e01b6119e4565b1490565b61144561016291611a9c600090565b5060026112bc565b92919091808115611bc1575b611ac6575b50509061174b61014c9260046112bc565b611acf836113dd565b91611add61026060006110f1565b6001600160a01b038216141580611ba5575b80611b92575b611b6157509161174b9161014c9493611b11575b509192611ab5565b611b1a906106ca565b611b23846106ca565b611b2c83610f8f565b917f8c5be1e5ebec7d5bd14f71427d1e84f3dd0314c0f7b2291e5b200ac8c7c3b925611b5760405190565b600090a438611b09565b610d0390611b6e60405190565b63a9fbf51f60e01b8152918291600483016001600160a01b03909116815260200190565b50611ba061106c8285611372565b611af5565b506001600160a01b0381166001600160a01b0384161415611aef565b50611bcf61026060006110f1565b6001600160a01b0383161415611ab0565b6001600160a01b03909116815260408101929161014c9160200152565b611c0b61106c848484611d45565b611c1457505050565b611c2461149561026060006110f1565b03611c3657610d038261141460405190565b610d03611c4260405190565b63177e802f60e01b815292839260048401611be0565b369037565b9061014c611c73611c6d846111d3565b93610586565b601f190160208401611c58565b634e487b7160e01b600052601260045260246000fd5b8115611ca0570490565b611c80565b611cae81611dd9565b90611cbf6001926101fd6001610f8f565b9180611cca84611c5d565b936020018401905b611cdd575b50505090565b8115611d4057611d249060001901927f3031323334353637383961626364656600000000000000000000000000000000600a82061a8453611d1e600a610f8f565b90611c96565b9081611d3361133a6000610f8f565b14611d4057909181611cd2565b611cd7565b90611d5361026060006110f1565b6001600160a01b03821614159283611d6b5750505090565b919250906001600160a01b0382166001600160a01b03841614928315611dc5575b508215611d9e575b5050388080611cd7565b611dbd919250611db06114959161142e565b926001600160a01b031690565b143880611d94565b611dd29193508290611372565b9138611d8c565b611de36000610f8f565b907a184f03e93ff9f4daa797ed6e38ed64bf6a1f010000000000000000611e0981610f8f565b821015611f59575b506d04ee2d6d415b85acef8100000000611e2a81610f8f565b821015611f37575b50662386f26fc10000611e4481610f8f565b821015611f15575b506305f5e100611e5b81610f8f565b821015611ef3575b50612710611e7081610f8f565b821015611ed1575b50611e836064610f8f565b811015611eaf575b611e9861133a600a610f8f565b1015611ea15790565b610162906101fd6001610f8f565b611ec0611ecb91611d1e6064610f8f565b916101fd6002610f8f565b90611e8b565b611eec91611d1e611ee192610f8f565b916101fd6004610f8f565b9038611e78565b611f0e91611d1e611f0392610f8f565b916101fd6008610f8f565b9038611e63565b611f3091611d1e611f2592610f8f565b916101fd6010610f8f565b9038611e4c565b611f5291611d1e611f4792610f8f565b916101fd6020610f8f565b9038611e32565b611f7491611d1e611f6992610f8f565b916101fd6040610f8f565b9038611e1156fea264697066735822122065db93285f4489649b54e42fbb57e3df42e32246dd7f49d3761acbdb25c31fd564736f6c63430008180033",
  "linkReferences": {},
  "deployedLinkReferences": {}
}