{
  "_format": "hh-sol-artifact-1",
  "contractName": "BohemAuth",
  "sourceName": "contracts/BohemAuth.sol",
  "abi": [
    {
      "inputs": [
        {
          "internalType": "address",
          "name": "_verifier",
          "type": "address"
        }
      ],
      "stateMutability": "nonpayable",
      "type": "constructor"
    },
    {
      "anonymous": false,
      "inputs": [
        {
          "indexed": false,
          "internalType": "string",
          "name": "id",
          "type": "string"
        },
        {
          "indexed": false,
          "internalType": "string",
          "name": "productHash",
          "type": "string"
        },
        {
          "indexed": false,
          "internalType": "string",
          "name": "uri",
          "type": "string"
        }
      ],
      "name": "ProductAdded",
      "type": "event"
    },
    {
      "inputs": [
        {
          "components": [
            {
              "internalType": "bytes32[]",
              "name": "merkleProof",
              "type": "bytes32[]"
            },
            {
              "components": [
                {
                  "internalType": "bytes32",
                  "name": "attestationType",
                  "type": "bytes32"
                },
                {
                  "internalType": "bytes32",
                  "name": "sourceId",
                  "type": "bytes32"
                },
                {
                  "internalType": "uint64",
                  "name": "votingRound",
                  "type": "uint64"
                },
                {
                  "internalType": "uint64",
                  "name": "lowestUsedTimestamp",
                  "type": "uint64"
                },
                {
                  "components": [
                    {
                      "internalType": "string",
                      "name": "url",
                      "type": "string"
                    },
                    {
                      "internalType": "string",
                      "name": "postprocessJq",
                      "type": "string"
                    },
                    {
                      "internalType": "string",
                      "name": "abi_signature",
                      "type": "string"
                    }
                  ],
                  "internalType": "struct IJsonApi.RequestBody",
                  "name": "requestBody",
                  "type": "tuple"
                },
                {
                  "components": [
                    {
                      "internalType": "bytes",
                      "name": "abi_encoded_data",
                      "type": "bytes"
                    }
                  ],
                  "internalType": "struct IJsonApi.ResponseBody",
                  "name": "responseBody",
                  "type": "tuple"
                }
              ],
              "internalType": "struct IJsonApi.Response",
              "name": "data",
              "type": "tuple"
            }
          ],
          "internalType": "struct IJsonApi.Proof",
          "name": "data",
          "type": "tuple"
        }
      ],
      "name": "addProduct",
      "outputs": [],
      "stateMutability": "nonpayable",
      "type": "function"
    },
    {
      "inputs": [
        {
          "internalType": "string",
          "name": "",
          "type": "string"
        }
      ],
      "name": "products",
      "outputs": [
        {
          "internalType": "string",
          "name": "name",
          "type": "string"
        },
        {
          "internalType": "string",
          "name": "description",
          "type": "string"
        },
        {
          "internalType": "string",
          "name": "image",
          "type": "string"
        },
        {
          "internalType": "bytes32",
          "name": "productHash",
          "type": "bytes32"
        },
        {
          "internalType": "string",
          "name": "uri",
          "type": "string"
        }
      ],
      "stateMutability": "view",
      "type": "function"
    },
    {
      "inputs": [
        {
          "components": [
            {
              "internalType": "bytes32[]",
              "name": "merkleProof",
              "type": "bytes32[]"
            },
            {
              "components": [
                {
                  "internalType": "bytes32",
                  "name": "attestationType",
                  "type": "bytes32"
                },
                {
                  "internalType": "bytes32",
                  "name": "sourceId",
                  "type": "bytes32"
                },
                {
                  "internalType": "uint64",
                  "name": "votingRound",
                  "type": "uint64"
                },
                {
                  "internalType": "uint64",
                  "name": "lowestUsedTimestamp",
                  "type": "uint64"
                },
                {
                  "components": [
                    {
                      "internalType": "string",
                      "name": "url",
                      "type": "string"
                    },
                    {
                      "internalType": "string",
                      "name": "postprocessJq",
                      "type": "string"
                    },
                    {
                      "internalType": "string",
                      "name": "abi_signature",
                      "type": "string"
                    }
                  ],
                  "internalType": "struct IJsonApi.RequestBody",
                  "name": "requestBody",
                  "type": "tuple"
                },
                {
                  "components": [
                    {
                      "internalType": "bytes",
                      "name": "abi_encoded_data",
                      "type": "bytes"
                    }
                  ],
                  "internalType": "struct IJsonApi.ResponseBody",
                  "name": "responseBody",
                  "type": "tuple"
                }
              ],
              "internalType": "struct IJsonApi.Response",
              "name": "data",
              "type": "tuple"
            }
          ],
          "internalType": "struct IJsonApi.Proof",
          "name": "_proof",
          "type": "tuple"
        },
        {
          "internalType": "bytes",
          "name": "proof",
          "type": "bytes"
        },
        {
          "internalType": "string",
          "name": "claimId",
          "type": "string"
        }
      ],
      "name": "verifyProductClaim",
      "outputs": [
        {
          "internalType": "bool",
          "name": "",
          "type": "bool"
        }
      ],
      "stateMutability": "view",
      "type": "function"
    }
  ],
  "bytecode": "0x60806040523462000030576200001e62000018620000d3565b62000156565b60405161169262000171823961169290f35b600080fd5b634e487b7160e01b600052604160045260246000fd5b90601f01601f191681019081106001600160401b038211176200006d57604052565b62000035565b906200008a6200008260405190565b92836200004b565b565b6001600160a01b031690565b90565b6001600160a01b038116036200003057565b905051906200008a826200009b565b9060208282031262000030576200009891620000ad565b620000986200180380380380620000ea8162000073565b928339810190620000bc565b62000098906200008c906001600160a01b031682565b6200009890620000f6565b62000098906200010c565b906200013662000098620001529262000117565b82546001600160a01b0319166001600160a01b03919091161790565b9055565b6200008a906200016833600162000122565b60026200012256fe6080604052600436101561001257600080fd5b60003560e01c80630186a423146100425780634d58aebf1461003d576390957d68036100f6576104c5565b61046e565b61038e565b634e487b7160e01b600052604160045260246000fd5b90601f01601f1916810190811067ffffffffffffffff82111761007f57604052565b610047565b9061009861009160405190565b928361005d565b565b67ffffffffffffffff811161007f57602090601f01601f19160190565b0190565b90826000939282370152565b909291926100dc6100d78261009a565b610084565b93818552818301116100f6576100989160208501906100bb565b600080fd5b9080601f830112156100f657816020610116933591016100c7565b90565b906020828203126100f657813567ffffffffffffffff81116100f65761011692016100fb565b60005b8381106101525750506000910152565b8181015183820152602001610142565b6100b761017a92602092610174815190565b94859290565b9384910161013f565b6101936100b79160209493610162565b918252565b6101ad6101a460405190565b92839283610183565b03902090565b61011691610198565b634e487b7160e01b600052602260045260246000fd5b90600160028304921680156101f2575b60208310146101ed57565b6101bc565b91607f16916101e2565b8054600093929161021961020f836101d2565b8085529360200190565b916001811690811561026b575060011461023257505050565b6102459192939450600052602060002090565b916000925b8184106102575750500190565b80548484015260209093019260010161024a565b92949550505060ff1916825215156020020190565b90610116916101fc565b906100986102a49261029b60405190565b93848092610280565b038361005d565b6101169081565b61011690546102ab565b6102c79060006101b3565b6102d08161028a565b916102dd6001830161028a565b916102ea6002820161028a565b9161011660046102fc600385016102b2565b930161028a565b61032461032d6020936100b793610318815190565b80835293849260200190565b9586910161013f565b601f01601f191690565b91610116959361036b6103799261035d6103819560a088019088820360008a0152610303565b908682036020880152610303565b908482036040860152610303565b936060830152565b6080818403910152610303565b346100f6576103bf6103a96103a4366004610119565b6102bc565b916103b695939560405190565b95869586610337565b0390f35b908160409103126100f65790565b909182601f830112156100f65781359167ffffffffffffffff83116100f65760200192600183028401116100f657565b6060818303126100f657803567ffffffffffffffff81116100f657826104289183016103c3565b92602082013567ffffffffffffffff81116100f657836104499184016103d1565b929093604082013567ffffffffffffffff81116100f65761046a92016103d1565b9091565b346100f6576103bf61048d610484366004610401565b93929092610751565b60405191829182901515815260200190565b906020828203126100f657813567ffffffffffffffff81116100f65761011692016103c3565b346100f6576104dd6104d836600461049f565b610b83565b604051005b156104e957565b60405162461bcd60e51b815260206004820152600d60248201527f496e76616c69642070726f6f66000000000000000000000000000000000000006044820152606490fd5b90359060be1936829003018212156100f6570190565b903590601e1936829003018212156100f6570190565b903590601e1936829003018212156100f6570180359067ffffffffffffffff82116100f657602001913682900383136100f657565b91909160c0818403126100f6576105a660c0610084565b92813567ffffffffffffffff81116100f657816105c49184016100fb565b8452602082013567ffffffffffffffff81116100f657816105e69184016100fb565b6020850152604082013567ffffffffffffffff81116100f6578161060b9184016100fb565b6040850152606082013567ffffffffffffffff81116100f657816106309184016100fb565b6060850152608082013567ffffffffffffffff81116100f657816106559184016100fb565b608085015260a082013567ffffffffffffffff81116100f65761067892016100fb565b60a0830152565b906020828203126100f657813567ffffffffffffffff81116100f657610116920161058f565b61011660a0610084565b9061009861071960046106c06106a5565b946106d16106cd8261028a565b8752565b6106e76106e06001830161028a565b6020880152565b6106fd6106f66002830161028a565b6040880152565b61071361070c600383016102b2565b6060880152565b0161028a565b6080840152565b610116906106af565b610116905b73ffffffffffffffffffffffffffffffffffffffff1690565b6101169054610729565b926107c360606107be6107b960006107b06107a861079f6107956101169d9a9c610779600090565b5061078b61078682610ec3565b6104e2565b602081019061052e565b60a0810190610544565b8381019061055a565b81019061067f565b015160006101b3565b610720565b015190565b926107ce6002610747565b94610f4e565b156107db57565b60405162461bcd60e51b815260206004820152600e60248201527f4e6f7420617574686f72697a65640000000000000000000000000000000000006044820152606490fd5b610098906108486108396108346001610747565b61072e565b6108423361072e565b146107d4565b610ab5565b9160001960089290920291821b911b5b9181191691161790565b6101166101166101169290565b919061088561011661088d93610867565b90835461084d565b9055565b61009891600091610874565b8181106108a8575050565b806108b66000600193610891565b0161089d565b9190601f81116108cb57505050565b6108dd61009893600052602060002090565b906020601f8401819004830193106108ff575b6020601f90910104019061089d565b90915081906108f0565b90610912815190565b9067ffffffffffffffff821161007f576109368261093085546101d2565b856108bc565b602090601f83116001146109715761088d929160009183610966575b5050600019600883021c1916906002021790565b015190503880610952565b601f1983169161098685600052602060002090565b9260005b8181106109c4575091600293918560019694106109ab575b50505002019055565b01516000196008601f8516021c191690553880806109a2565b9193602060018192878701518155019501920161098a565b9061009891610909565b906000199061085d565b906109fe61011661088d9290565b82546109e6565b6004610a69608061009894610a24610a1e600083015190565b866109dc565b610a3b610a32602083015190565b600187016109dc565b610a52610a49604083015190565b600287016109dc565b6107be610a60606083015190565b600387016109f0565b91016109dc565b9061009891610a05565b91610aa790610a99610116959360608601908682036000880152610303565b908482036020860152610303565b916040818403910152610303565b610b45610af86107a8610af26107957feab1c938597e74d0e51420450248782eaccfb12583eadf3032a2bc9d33c08d5f9561078b61078682610ec3565b8061055a565b610b7e6000610b6d81602085015194610b5a604082015196610b5360608401519861070c608086019a610b4c610b2e8d516110d9565b9360a089019e8f5197610b3f6106a5565b9d8e0152565b60208c0152565b60408a0152565b6080860152565b0191610b68835160006101b3565b610a70565b519151925160405193849384610a7a565b0390a1565b61009890610820565b61072e6101166101169273ffffffffffffffffffffffffffffffffffffffff1690565b61011690610b8c565b61011690610baf565b8015155b036100f657565b9050519061009882610bc1565b906020828203126100f65761011691610bcc565b9035601e1936839003018112156100f657016020813591019167ffffffffffffffff82116100f65760208202360383136100f657565b9037565b8183529091602001917f07ffffffffffffffffffffffffffffffffffffffffffffffffffffffffffffff81116100f657829160206100b79202938491610c23565b903560be1936839003018112156100f6570190565b80610bc5565b9050359061009882610c7d565b50610116906020810190610c83565b67ffffffffffffffff8116610bc5565b9050359061009882610c9f565b50610116906020810190610caf565b9035605e1936839003018112156100f6570190565b9035601e1936839003018112156100f657016020813591019167ffffffffffffffff82116100f6573682900383136100f657565b919061032d81610d2b816100b79560209181520190565b80956100bb565b61011691610d7e610d73610d5860608401610d4d8680610ce0565b868303875290610d14565b610d656020860186610ce0565b908583036020870152610d14565b926040810190610ce0565b916040818503910152610d14565b9035601e1936839003018112156100f6570190565b610116916020810191610db49080610ce0565b828403909252610d14565b61011691610e5c610e5160c08301610dde610dda8680610c90565b8552565b610df5610dee6020870187610c90565b6020860152565b610e16610e056040870187610cbc565b67ffffffffffffffff166040860152565b610e37610e266060870187610cbc565b67ffffffffffffffff166060860152565b610e446080860186610ccb565b8482036080860152610d32565b9260a0810190610d8c565b9060a0818403910152610da1565b61011691610e98610e8d60408301610e828580610bed565b858303865290610c27565b926020810190610c68565b906020818403910152610dbf565b602080825261011692910190610e6a565b6040513d6000823e3d90fd5b6020610eff91610ed1600090565b50610ee2610edd6112e0565b610bb8565b6040519384928391829163d0f18f8560e01b835260048301610ea6565b03915afa908115610f3e57600091610f15575090565b610116915060203d602011610f37575b610f2f818361005d565b810190610bd9565b503d610f25565b610eb7565b6101169136916100c7565b9293610f6b6101169695610f709394610f65600090565b50610f43565b611364565b91611467565b634e487b7160e01b600052603260045260246000fd5b90610f95825190565b811015610fa3570160200190565b610f76565b610fbb610fb56101169290565b60f81b90565b6001600160f81b03191690565b634e487b7160e01b600052601160045260246000fd5b91908203918211610feb57565b610fc8565b15610ff757565b60405162461bcd60e51b815260206004820152601960248201527f496e76616c69642068657820737472696e67206c656e677468000000000000006044820152606490fd5b81810292918115918404141715610feb57565b91908201809211610feb57565b61106c6101166101169260ff1690565b60ff1690565b6101169060f81c61105c565b61106c6101166101169290565b61106c906110a661109f6101169460ff1690565b9160ff1690565b901b90565b61011690610867565b6101166101166101169260ff1690565b610116906110a66110d56101169490565b9190565b906000916110e683610867565b906110ef815190565b916002926110ff6110d585610867565b1015806112bf575b80611263575b611254575b61113961112682611121855190565b610fde565b6111336110d56040610867565b14610ff0565b61114b61114586610867565b95610867565b945b6111576020610867565b86101561124d576112406112479161123a61121461120e886112076111f66111cf6111ca8f8d6111f06111e68f6111e06111bc956111da6111d46111cf6111ca8f6111b66111b06111aa6111bc93610867565b8861103c565b8961104f565b8b610f8c565b516001600160f81b03191690565b611072565b6114d8565b9c610867565b9061103c565b9061104f565b6111e06001610867565b90610f8c565b91611201600461107e565b9061108b565b17936110ab565b926110b4565b6112346112258b611121601f610867565b61122f6008610867565b61103c565b906110c4565b17610867565b9560010190565b9461114d565b9450505050565b5061125e82610867565b611112565b5061127a6111bc6112746001610867565b84610f8c565b6112956112876078610fa8565b916001600160f81b03191690565b148061110d57506112ac6111bc6112746001610867565b6112b96112876058610fa8565b1461110d565b506112cd6111bc8284610f8c565b6112da6112876030610fa8565b14611107565b61011673206d83e3a24523de1e43ab56ac8f7b9b10f6ab89610bb8565b67ffffffffffffffff811161007f5760208091020190565b906101936100d7836112fd565b369037565b9061009861133d61133784611315565b936112fd565b601f190160208401611322565b90611353825190565b811015610fa3576020809102010190565b909161138161137b6113766025610867565b611327565b926115f3565b9061138c6000610867565b6113966024610867565b8110156113cd57806113c26113b56113b16113c8948761134a565b5190565b6113bf838861134a565b52565b60010190565b61138c565b509261011691506113bf6113e16024610867565b8461134a565b906114076114006113f6845190565b8084529260200190565b9260200190565b9060005b8181106114185750505090565b90919261143561142e6001928651815260200190565b9460200190565b92910161140b565b9161011693916114599160408501918583036000870152610d14565b9160208184039101526113e7565b60209291611483610edd610eff9661147d600090565b50610bb8565b9161148d60405190565b95869485938493633a94343960e21b85526004850161143d565b6114b39060ff1661109f565b90039060ff8211610feb57565b6114cc9060ff1661109f565b019060ff8211610feb57565b6114e2603061107e565b60ff82161015806115dd575b6115cf576114fc606161107e565b60ff82161015806115b9575b6115a857611516604161107e565b60ff8216101580611592575b61156b5760405162461bcd60e51b815260206004820152601560248201527f496e76616c6964206865782063686172616374657200000000000000000000006044820152606490fd5b6115826101169161157c604161107e565b906114a7565b61158c600a61107e565b906114c0565b5061159d604661107e565b60ff82161115611522565b6115826101169161157c606161107e565b506115c4606661107e565b60ff82161115611508565b6101169061157c603061107e565b506115e8603961107e565b60ff821611156114ee565b906115fc825190565b9161160683611327565b916116116000610867565b845b8110156116555761164e816113c261164461163f61163a6111ca6111bc611613988b610f8c565b6110b4565b610867565b6113bf838961134a565b9050611611565b509250509056fea2646970667358221220ba9e042fc47b15c67cc901c06de7b9d9b58f150f4581772b2f99129665b2a59e64736f6c63430008180033",
  "linkReferences": {},
  "deployedLinkReferences": {}
}